:020000040800F2
:10000000382C002079340008653300086733000875
:10001000693300086B3300086D33000800000000EE
:10002000000000000000000000000000072D000894
:100030006F33000800000000C12C00087133000875
:10004000A9340008AD340008B1340008B534000804
:10005000B9340008BD340008C1340008C5340008B4
:10006000C9340008CD340008D1340008D534000864
:10007000D9340008DD340008E1340008E534000814
:10008000E9340008ED340008F1340008F5340008C4
:10009000F9340008FD340008013500080535000872
:1000A000093500080D350008113500081535000820
:1000B000193500081D350008213500087F33000878
:1000C0008533000825350008293500082D3500083E
:1000D0003135000835350008393500083D35000850
:1000E000413500084535000849350008F8B50400D9
:1000F00074D02068DFF8B011DFF8B05188421CBF1F
:10010000DFF8AC11884203D040F27D1100F0C0F856
:10011000606818B1DFF89C11884203D34FF4BF71B7
:1001200000F0B6F8A068002818BFB0F5804F03D0E3
:1001300040F27F1100F0ACF8E068800A800203D042
:100140004FF4C07100F0A4F82069B0F5804F18BFDB
:10015000B0F5404F03D040F2811100F099F860698A
:10016000002818BF012803D04FF4C17100F090F8A7
:10017000A06930F0FE0003D040F2831100F088F84F
:10018000E069002818BF402803D04FF4C27100F086
:100190007FF8206A002818BF802803D040F285111C
:1001A00000F076F804F13C05687820B90021297048
:1001B000204600F0C9FD24206870206801684908C5
:1001C0004900016001F046F901466068DFF8E82067
:1001D000904205D2DFF8E400814205D20120F2BD51
:1001E000DFF8DC008142F9D3DFF8D800B1FBF0F38F
:1001F000206843606668964206D34FF49670434386
:100200004FF47A76B3FBF6F327685B1C3B62491E1A
:100210006368934206D25B0000F034F8042813D2DE
:10022000042011E0A06820B903EB430300F02AF892
:1002300005E01920434300F025F840F48040010513
:100240000CBF012040F400402168C861E269206AC7
:100250000243206802602169E068014320688160F0
:100260006169A06901432068C1602068016841F0AC
:100270000101016000206860202068700020206378
:10028000A870F2BDB1FBF3F0401CC0F30B00704747
:10029000284601F07CB90090286841690091806986
:1002A000009000997047000000540040C802000808
:1002B00000580040811A0600A186010080841E00BB
:1002C00000093D0040420F00443A5C646576656C6D
:1002D0006F706D656E745C6769745C726164696F80
:1002E0005C726164696F5C447269766572735C53B9
:1002F000544D3332463178785F48414C5F447269DF
:100300007665725C5372635C73746D3332663178F8
:10031000785F68616C5F6932632E63002DE9F84F86
:10032000044604F13D022168DFF86889D1F818908D
:100330004E694F685078DFF87C55DFF85CA9DFF82C
:100340005CB9DFF868C9102818BF40286ED116F0D4
:10035000011F04F144032ED0B8053ED55078402843
:1003600009D1D86818B91A6802F0FE0221E01868AD
:1003700040F0010026E02069B0F5804F0BD11278E3
:10038000212A03D1186800F0FE001CE01A6842F030
:100390000102D2B20DE0D86820B900F0C6F842F0F0
:1003A000F00206E0D868012817D100F0BEF842F04C
:1003B000F1020A6111E0DFF8F808064205D0BA053B
:1003C0000BD51868C0B2086107E016EA0C0F04D01C
:1003D000B80544BF204600F081FA19EA0B0F12D08D
:1003E00016EA0A0F07D0780505D52E4203D120461C
:1003F000BDE8F24F0BE12E4245D0B8055CD5204652
:10040000BDE8F24F69E116EA080F07D0780505D577
:100410002E4203D12046BDE8F24FA9E12E4232D050
:10042000B80549D52046BDE8F24FFBE116EA0C0FAE
:1004300012D0B8051AD58A6989690020530758BFB8
:1004400001200A060146204654BFE268A269BDE8C1
:10045000F84F92B201F09CB8DFF85808064205D078
:10046000BB0503D52046BDE8F24FE5E219EA0B0FC4
:100470002CD016EA0A0F1CD078051AD52E4218D1B6
:100480001378608D00284ED0606A451C6562007844
:10049000086100F050F808BF292B44D100F051F852
:1004A00021202063282010702046BDE8F24F01F083
:1004B00070B82E4237D0B80535D5608D002832D0BF
:1004C000606A421C62620078086129E016EA080F3F
:1004D0001BD0780519D52E4217D11378608D10B333
:1004E000606A451C65620969017000F024F808BF64
:1004F0002A2B18D100F025F8222020632820107024
:100500002046BDE8F24F01F045B82E420BD0B805A9
:1005100009D5608D38B1606A421C62620969017058
:10052000608D411E6185BDE8F18F1A681204D20DFD
:1005300002F006027047608D411E6185608D0028C3
:1005400070472068416821F4806141607047F8B5C8
:100550000446DFF864172068456946680D420DD0EF
:10056000F20518D5216C41F0010121646FF480720D
:1005700042612068016841F40041016015F4813F47
:1005800009D0F0053CD5206C40F0020020646FF4E7
:1005900000712068416115F4823F24D0F0052FD509
:1005A00004F13D004178628D0378276B202908BF54
:1005B000002A0BD1212B18BF292B03D0282B08BFD1
:1005C000212F03D1204600F0A3FA0CE0216C41F06A
:1005D000040121644078102801D100F061FB6FF420
:1005E00080602268506115F4843F09D0F00507D57A
:1005F000206C40F0080020646FF4006122685161B3
:10060000206C18B12046BDE8F240BDE2F1BD38B51E
:1006100000F13D0213785478C56A018D002908BFA6
:10062000212B15D1042D1EBF082DA3498D4202D0C8
:1006300000F081F809E000F08AF804D1002353703B
:1006400000F0A9FF42E00021517000F0A5FF3DE05D
:10065000212B03D0402C08BF222B37D1418D11B95B
:1006600000F0D4F832E0517840292DD100F1480350
:10067000996889B900685968012905D11A68D2B208
:1006800002619868801C05E019680904090E01617F
:100690009868401C986019E09968012907D11A6888
:1006A0000068D2B202619968491C99600EE09968AD
:1006B00002290BD11378222B03D1006800F008F82F
:1006C00004E01278212A01D100F02BF8002032BD7D
:1006D000016841F480710160704710B5C36A00F190
:1006E0003D021478212C19D1418D11B100F019F877
:1006F00014E0042B1EBF082B6F498B4202D000F080
:100700001AF809E000F023F804D10023537000F038
:1007100042FF03E00021517000F03EFF002010BDB9
:100720000000416A4A1C4262026809781161418DE9
:100730004A1E4285704701684B6823F4E0634B60B2
:10074000112101630021517020211170704701684F
:100750004B6823F4E0634B6001680B6843F400735B
:100760000B600021016320211170517840297047EE
:1007700010B500F13D010A78222A45D1428D042AA4
:1007800002D300F09BF83FE0022A18BF032A13D1DE
:100790000168C26A0B68022A08D023F480630B60E8
:1007A00001680A6842F400620A6002E043F4806370
:1007B0000B6000F02BF827E00268C36A022B04D01C
:1007C000146824F48064146003E0136843F48063C5
:1007D000136000F021F8426A531C436203681C69ED
:1007E0001470428D531E4385002220230B70026338
:1007F0004A78402A04D100234B7000F0CEFE03E07B
:1008000000224A7000F0CAFE002010BD0068416856
:1008100021F48061416070470268536823F4E0630B
:100820005360704780B5C16A438D234A032B07D1BB
:1008300004291CBF0829914237D100F0EEF834E0BA
:10084000438D022B31D104291CBF082991420ED0BF
:100850000268022904D0116821F48061116003E06C
:10086000136843F48063136000F032F806E000F090
:100870002FF801680A6842F400720A6000F01EF85E
:1008800000F01CF800F13D0120220A7000220263F2
:100890004A78402A04D100234B7000F07EFE06E027
:1008A00000224A7000F07AFE01E000F007F8002014
:1008B00002BD0000040001000000FFFF416A4A1C65
:1008C0004262026813690B70418D4A1E428570476F
:1008D00001684A6822F440724A60704738B500F1F6
:1008E0003D014A78C36A046B0D78222D40F0858063
:1008F000016D002908BF402A02D1002200927EE04B
:10090000016D002904BF0269B2F5404F07D100F024
:100910007BF842F480720A60016D491C6BE0418DE6
:1009200011B9002200922BE0418D012933D1DFF86B
:100930008C2393420DD100F070F801684A681305CA
:1009400010D4002200924B6900938A690092009BA8
:100950001CE0042B1CBF082B122C0DD00168C26AAE
:10096000022A04D00B6823F480630B6040E00A681D
:1009700042F480620A603BE000F04FF800210091F1
:1009800001684A6900928B690093009A0A6842F4F0
:1009900000720A602EE00168428D022A1CD1C36AEF
:1009A000022B0AD00A6842F400620A60002100F0BB
:1009B0002BF822F480620A6005E00B6843F4806340
:1009C0000B6000F030F801684A68130512D54A68D8
:1009D00042F480524A600DE00B6843F480630B6080
:1009E00001684A68130503D54A6842F480524A6098
:1009F00000F019F80021016504E000210091006871
:100A0000FFF74BFC002032BD009101684A6900925B
:100A10008B690093009A0A68704701680A6822F49B
:100A200080620A6070470021009101684A69009263
:100A300089690091009A704770B500F13D0282B05B
:100A4000137801684C6824F4E0644C600021009144
:100A500001684C6900940D6845F001050D6000992E
:100A600001680C6824F480640C60046861680D05FA
:100A70000DD51578222D1CBF11782A2903D1856B3D
:100A800029684E6802E0416B0D686E684685418DAD
:100A9000D1B16569690707D5416A4D1C4562246972
:100AA0000C70418D4C1E448501684C69650607D564
:100AB000446A651C456209692170418D4C1E44855C
:100AC000016C41F004010164016C11B100F05CF8AB
:100AD0001CE0282B1CBF2A2B292B0BD1DFF8DC11A3
:100AE000C16200210163202111700021517000F0CA
:100AF00056FD0BE0016B222918BF222B06D10023E3
:100B0000036320211170537000F044FD002076BD76
:100B100038B500F13D016FF480620B78C46ADFF8EC
:100B20009C51042C14BF082C282B15D1C5620368D6
:100B30005C6824F4E0645C6003685A6102681468CD
:100B400024F4806414600022026320220A700022D0
:100B50004A7000F024FD15E0212B11D1C56203631A
:100B600020230B7000234B7001684B6823F4E06373
:100B70004B6001684A61FFF750FF00F00AFD01E099
:100B800000684261002032BD38B5044604F13D05DD
:100B90002878292818BF2A2804D10020206328207B
:100BA00028700BE02878602805D021684868010586
:100BB0005CBF2021297000202063687020680168D4
:100BC00021F400610160206841680A0523D541686D
:100BD00021F400614160606B0FF2E50190F8212083
:100BE000012A09D04163606B00F0DAFC002825D0AF
:100BF00000F048F8606B0BE0A06B4163A06B00F065
:100C0000CFFCD8B1206800F02DF800F03BF8A06BC5
:100C1000416B884712E0297860290AD120222A7086
:100C20000022226400F01EF800F025F800F014FD08
:100C300004E000F017F8204600F00FFD287828287F
:100C40000FD1216C48070CD51C48E06200202063BE
:100C500020202870002068702046BDE8324000F057
:100C60009EBC31BD41694A0604D5616A4A1C626274
:100C700000690870704720680168490849000160F0
:100C8000204670472068016849084900016020201B
:100C9000287070474000010080000100040010002F
:100CA0002068016841F40071016070470200010092
:100CB0000800010010000100000101000000FFFF1A
:100CC000406A01680A6822F480620A600021418556
:100CD000426B5163826B516300F13D010B78602BD5
:100CE0000BD120220A7000224A70026401680A684F
:100CF000520852000A6000F0AFBC20230B700022A3
:100D00004A7001680A68520852000A6000F0A5BCE7
:100D100080B5244824490160244941600021816054
:100D2000C1604FF480410161002141618161C16175
:100D30000162FFF7DBF930B1BDE804404C210FF24E
:100D4000780000F023BC01BD00681749884200D03C
:100D5000704700B585B0C021019112200321029097
:100D6000049101A9124800F079FC1248016841F48D
:100D7000001101600022006800F4001000900521BD
:100D800000981F2000F030FE1F2000F05DFE0022C2
:100D90000521202000F028FE202000F055FE05B09F
:100DA00000BD00006029002000540040A086010022
:100DB000000C01401C100240443A5C646576656C8E
:100DC0006F706D656E745C6769745C726164696F85
:100DD0005C726164696F5C5372635C6932632E6339
:100DE000000000002DE9F047040082B00FF2A86A6D
:100DF00003D14FF4B87100F00EFA206830B110F052
:100E00000F0F03D140F2711100F005FA2078DFF8DE
:100E10005C76C10756D5606800281CBFB0F5803FDE
:100E2000B0F5A02F03D040F2771100F0F4F9786804
:100E300000F00C00042807D0786800F00C000828A7
:100E40000BD17868C10308D5396888033AD5606842
:100E5000002840F0C2800120DBE16068B0F5803FEF
:100E60000FD038B9396821F480313960386820F4FE
:100E7000802009E0B0F5A02F396807D141F4802126
:100E80003960386840F48030386006E021F4803101
:100E900039603A6822F480223A60606868B100F0F4
:100EA0004DFE05463968880300F1978000F046FE44
:100EB000401B6528F6D30320ABE100F03FFE05465A
:100EC0003868810340F1898000F038FE401B6528B6
:100ED000F6D3F0E700F032FE401B022840F2C58056
:100EE000E9E7206978B10121C8F8001000F026FE7A
:100EF00005463868810700F1FC8000F01FFE401BAA
:100F00000228F6D9D7E7C8F8000000F017FE05461A
:100F10003868810765D500F011FE401B0228F7D91B
:100F2000C9E70020286000F009FE0546786A8107BD
:100F300040F1AE8000F002FE401B0228F6D9BAE76D
:100F400008B9386A09E00528386A06D140F004007B
:100F50003862386A40F0010005E04008400038621D
:100F6000386A20F00400386241F28939E06860B1E3
:100F700000F0E4FD0646386A810700F1C78000F002
:100F8000DDFD801B4845F6D395E700F0D7FD06460A
:100F9000386A810740F1BA8000F0D0FD801B4845D7
:100FA000F6D388E700F0CAFD401B022840F2088112
:100FB00081E700F0C3FD001B022840F225817AE79B
:100FC00000F02CF904463868810140F1218100F0DD
:100FD000B5FD001B0228F6D96DE72078DFF898846C
:100FE00081072BD52069002818BF012803D040F2C3
:100FF000AB1100F010F96069202803D34FF4D671CB
:1010000000F009F9786810F00C0F09D0786800F04A
:101010000C0008287FF465AF7868C1033FF561AF25
:101020003968880703D5206901287FF414AF39682F
:10103000606921F0F80141EAC001396021780807B0
:1010400026D5A069DFF83454002807D0012807D03E
:101050004FF4F67100F0DFF8A06900283FF461AFAB
:101060000121296000F06AFD0546786A81077FF555
:1010700031AFDFF8FC130868C0084FF47A72B0FB98
:10108000F2F2009200BF0098411E00280091F9D1B1
:10109000207841073FD5E068002500281CBF0128C3
:1010A000052803D040F21B2100F0B5F8F869C10013
:1010B00009D4F86940F08050F8610125F86900F022
:1010C000805000900098DFF8B8633168C80518D4E4
:1010D000306840F48070306000F030FD8146316847
:1010E000C8050ED400F02AFDA0EB09006528F6D350
:1010F000E1E63868616920F0F80040EAC100386034
:101100009CE7E06801287FF41BAF22E71DB1F86976
:1011100020F08050F861E069002879D0012818BFDC
:10112000022806D040F2B92100F075F8E0690028E5
:101130006ED0796801F00C0108293FF48CAEE069AB
:1011400002287FF43DAF206A002818BFB0F5803F29
:1011500003D040F2C22100F05EF8606A002818BF98
:10116000B0F5802F29D0B0F5002F18BFB0F5402F73
:1011700023D0B0F5801F18BFB0F5A01F1DD0B0F56B
:10118000C01F18BFB0F5E01F17D0B0F5001F18BF83
:10119000B0F5101F11D0B0F5201F18BFB0F5301FEB
:1011A0000BD0B0F5401F1CBFB0F5501FB0F5601F4D
:1011B00003D040F2C32100F02EF800F02FF80546CE
:1011C000386881013FF5EEAE206AB0F5803F0FD15F
:1011D000A068002818BFB0F5003F03D040F2D92125
:1011E00000F019F87968A06821F4003101437960B2
:1011F0007968206A21F474110143606A01437960BF
:10120000012000F00CF80446386881017FF5D1AE6A
:101210000020BDE8F687504600F0B9B90020C8F8B4
:10122000600000F08BBC2DE9F04704000D460FF282
:10123000682903D140F22E3100F0E8F8207810F050
:101240000F0F03D140F22F3100F0E0F8002D1CBF4A
:10125000012D022D03D04FF44C7100F0D7F8DFF8C8
:101260002472386800F00700A84202D200F0C4F8E7
:1012700039D12178DFF8F46188071BD5A0680028F0
:1012800018BF802810D0902818BFA0280CD0B028F4
:1012900018BFC02808D0D0281CBFE028F02803D0F1
:1012A00040F2493100F0B2F87168A06821F0F00115
:1012B000014371602078C10740F18980606898B16E
:1012C000012808D002280BD04FF4547100F09EF88A
:1012D0006068012802D13068810303E0022803D14D
:1012E0003068810103D47AE03168880777D5716866
:1012F0006068890840EA8101716041F2893A00F032
:101300001DFC8046606801280CD1706800F00C005C
:1013100004285CD000F012FCA0EB08005045F4D388
:10132000032052E002285CD1706800F00C0008280D
:101330004DD000F003FCA0EB08005045F4D3EFE7DC
:101340002078410717D5E068002818BFB0F5806FF6
:101350000BD0B0F5A06F1CBFB0F5C06FB0F5E06F5B
:1013600003D04FF4697100F051F87168E06821F41E
:10137000E061014371602078010718D520690028D9
:1013800018BFB0F5806F0BD0B0F5A06F1CBFB0F5E3
:10139000C06FB0F5E06F03D040F2AB3100F036F82B
:1013A0007068216920F4605040EAC100706000F06C
:1013B00030F872683449C2F30312895C2C4AC84081
:1013C00010600F2000F0C0FB0020BDE8F0873868F7
:1013D00000F007008542B3D200F00EF8B0D0012033
:1013E000F3E7706810F00C0FF1D000F0A7FBA0EB52
:1013F00008005045F5D393E73968C90845EAC101AB
:101400003960386800F00700A8427047484600F08D
:10141000BEB81E4917480A6802F00C03082B00D01A
:10142000704710B50FF2C404C2F38343D203E35CE8
:1014300009D509680FF2C402C1F340415843515C19
:10144000B0FBF1F010BD18461149484310BD0848E3
:101450000068704706480D4A006813680D49C3F3D9
:101460000222FFE7895CC84070470000001002407C
:101470001800002000127A0000004242800442421C
:1014800000700040002002401433000804100240A5
:1014900000093D00A0340008443A5C646576656C40
:1014A0006F706D656E745C6769745C726164696F9E
:1014B0005C726164696F5C447269766572735C53D7
:1014C000544D3332463178785F48414C5F447269FD
:1014D0007665725C5372635C73746D333266317817
:1014E000785F68616C5F7263632E630002030405BA
:1014F000060708090A0B0C0D0E0F1010010280B52B
:1015000000F042FB00F009F800F050FBFFF700FC90
:1015100000F098FB00F0BEFBFEE700B500218FB0A5
:1015200001200791059002210C914FF48030069024
:1015300001220D904FF4E01109920E9105A8FFF7DA
:1015400051FC00B1FEE70F21022000910190002123
:101550004FF4806002910390049168460221FFF7E6
:1015600062FE00B1FEE7FFF772FF4FF47A71B0FB45
:10157000F1F000F07AFA042000F093FA00220F2133
:101580004FF0FF3000F030FA0FB000BDFEE77047BB
:101590007047704770477047704770477047704793
:1015A00038B590F821200024022A00F1340103D03C
:1015B0000420486001243EE00268136823F00E0313
:1015C00013600268DFF8743015686D086D001560EF
:1015D00002689A4208BF012222D0DFF864309A42A2
:1015E00008BF10221CD0DFF85C309A4208BF4FF4CD
:1015F000807215D0DFF850309A4208BF4FF4805205
:101600000ED0DFF848309A4208BF4FF4803207D03E
:10161000DFF83C309A420CBF4FF480124FF08072DA
:10162000DFF830301A60012280F8212080F8204055
:10163000096801B18847204632BD00000800024019
:101640001C000240300002404400024058000240AA
:101650006C00024004000240704770472DE9F84FCB
:1016600083460026DFF89C020FF2D02983451CBF79
:10167000DFF8940283450F460DD0DFF890028345D2
:101680001FBFDFF88C028345DFF88802834502D054
:10169000CD2100F033F93868010402D0000C0004B9
:1016A00002D0CE2100F02AF97868002818BF01285E
:1016B00022D0112818BF02281ED012281CBFDFF824
:1016C0005812884218D0DFF8541288421CBFDFF845
:1016D0005012884210D0DFF84C1288421CBFDFF84D
:1016E0004812884208D0DFF84412884218BF032805
:1016F00002D0CF2100F002F9B046DFF834520120C9
:101700003C6800FA08FA0AEA0404544540F0EE8006
:10171000DFF8F00183451CBFDFF8EC0183450DD0F5
:10172000DFF8E80183451FBFDFF8E4018345DFF8F8
:10173000E401834502D0DD2100F0E0F8786800285C
:1017400051D0012820D0022835D0032863D0112899
:1017500025D012283BD0DFF8C01188421CBFDFF82B
:10176000C41188423FD0DFF8B41188421CBFDFF8B3
:10177000B811884237D0DFF8A81188421CBFDFF8C3
:10178000AC1188422FD047E0F86802281CBF01281E
:10179000032802D0E52100F0B1F8FE683CE0F868CB
:1017A00002281CBF0128032802D0EC2100F0A6F873
:1017B000FE68361D30E0F86802281CBF01280328A7
:1017C00002D0F32100F09AF8FE68083624E0F868A9
:1017D00002281CBF0128032802D0FA2100F08EF84D
:1017E000FE680C3618E0B86848B101280BD0022812
:1017F0000DD040F2071100F081F8B86808B904264E
:101800000AE0012803D10826CBF810A004E008263E
:10181000CBF814A000E00026B4F5807F03D2584630
:101820004FEA880104E0A8F108010BF104008900E7
:1018300002680F238B409A4306FA01F111430160BD
:101840007868C10052D53B49086840F00100086043
:101850000F230868384900F00100009000984FEA13
:10186000980051F820204FEA880101F00C018B40CC
:101870009A43244B9B4508BF00230ED0224B9B4527
:1018800008BF012309D0214B9B4508BF022304D088
:101890001F4B9B450CBF0323042303FA01F10A43AA
:1018A000254941F82020E0437968CA0303D52A6816
:1018B00022432A6002E029680140296079688A038E
:1018C00069684CBF2143014069607968CA02A96810
:1018D0004CBF21430140A96079688A0203D5E868BA
:1018E0000443EC6002E0E9680840E86008F10108A0
:1018F000B8F10F0F7FF603AFBDE8F18F4846FFF751
:1019000046BE000000080140000C014000100140EC
:1019100000140140001801400000111000002110C7
:1019200000003110000012100000221000003210E0
:10193000000401401810024008000140443A5C6471
:101940006576656C6F706D656E745C6769745C72EA
:101950006164696F5C726164696F5C447269766529
:1019600072735C53544D3332463178785F48414C42
:101970005F4472697665725C5372635C73746D3335
:1019800032663178785F68616C5F6770696F2E636B
:10199000000000000901002881B006D54B4A00F084
:1019A0000F00104400F8041C01E0494A115401B032
:1019B000704710B50446072C18BF062C07D0052C1D
:1019C0001CBF042C032C02D0A22100F066F8414970
:1019D0000A684FF6FF002402024004F4E064144356
:1019E0003D4804430C6010BDF8B51546102D044663
:1019F0000E460FF2F00703D3BA213846FFF7C7FDB2
:101A0000102E03D3BB213846FFF7C1FD31480168D2
:101A1000C1F30220C0F10701052928BF0421021DDE
:101A2000072A34BF0020C01E012202FA01F1491E1C
:101A30000E40864002FA00F0401E054045EA0601CD
:101A40002046BDE8F440A5E738B50446250002D598
:101A5000CE2100F022F800F01CF82048FFE702FA3F
:101A600004F46D0940F8254031BD10B5401EB0F1B9
:101A7000807F01D3012010BD194C60600F214FF011
:101A8000FF30FFF787FF0022A260072020600020C0
:101A900010BD012204F01F0470470FF24800FFF749
:101AA00076BD10B504280E4C09D018B140F2D911FA
:101AB000FFF7F3FF226822F00402226010BD2068C5
:101AC00040F00400206010BD0000000018ED00E0B0
:101AD00000E400E00CED00E00000FA0500E100E0A9
:101AE00010E000E0443A5C646576656C6F706D658B
:101AF0006E745C6769745C726164696F5C72616466
:101B0000696F5C447269766572735C53544D33320D
:101B1000463178785F48414C5F4472697665725C03
:101B20005372635C73746D3332663178785F6861C9
:101B30006C5F636F727465782E63000001484068C3
:101B4000704700BF0C00002038B50D4D0D4A2978B4
:101B500004464FF47A70B0FBF1F11068B0FBF1F07D
:101B6000FFF783FF50B9102C08D2002221464FF016
:101B7000FF30FFF739FFAC60002032BD012032BDDD
:101B80000C0000201800002080B50748016841F0D3
:101B9000100101600320FFF70CFF0F20FFF7D4FFB7
:101BA00000F0A6F8002002BD0020024000B5214848
:101BB00085B0016841F010010160026802F0100276
:101BC00004920499016841F020010160026802F06A
:101BD000200204920499016841F004010160026846
:101BE00002F00402049203220499016841F0080102
:101BF00001604FF46041006800F008000490049810
:101C00000D48009101926946FFF728FD032041F637
:101C1000FF720190009269460848FFF71FFD4FF6DA
:101C2000277003210090019169460548FFF716FDD2
:101C300005B000BD1810024000100140000801402E
:101C4000000C014000B585B068460FF2280114224F
:101C500000F0AAF80021684600F021F80149086068
:101C600005B000BD302A002080B5012000F02EF81C
:101C7000FBE7000088340008691C00080000000031
:101C8000000000008000000001460020842918BFE9
:101C9000C81C704780B500F0A3F9002002BD3EB516
:101CA00004460D46B4F90800FFF7EEFF02A90191C2
:101CB00000902B4622692168606892B200F0B8F863
:101CC000012801D000203EBD02983EBD80B500B97C
:101CD000012000F068F9002002BD80B500F07FFB14
:101CE000012803D0BDE8014000F0F8BC01BD0000B0
:101CF00080B52348016841F001010160026802F0EB
:101D0000010200920099416841F0805141604068B1
:101D100000F08050009000980320FFF74AFE002258
:101D200000216FF00B00FFF75FFE002200216FF033
:101D30000A00FFF759FE002200216FF00900FFF7AB
:101D400053FE002200216FF00400FFF74DFE002239
:101D500000216FF00300FFF747FE00220F216FF014
:101D60000100FFF741FE00220F214FF0FF30FFF787
:101D70003BFE0448016821F0E061016001BD00BF45
:101D8000181002400400014062B38B0708D0521EB5
:101D900011F8013B00F8013B00F024808B07F6D1DD
:101DA000830740F0208000BF103A07D330B4B1E879
:101DB0003810103AA0E83810F9D230BC530724BFCD
:101DC000B1E80810A0E8081044BF51F8043B40F8FF
:101DD000043BD20724BF31F8022B20F8022B44BF6A
:101DE0000B7803707047121F17D35B0009D151F8AD
:101DF000043B20F8023B1B0C121F20F8023BF6D2DA
:101E00000BE051F8043B00F8013B1B0A20F8023BB1
:101E10001B0C121F00F8013BF3D238BF121D521EDB
:101E200024BF11F8013B00F8013BF8D870470000CF
:101E30002DE9F0430646174685B088469946B80016
:101E400000F09EFC05001AD0542000F099FC04001C
:101E500012D00D990C9825630022039201910090F5
:101E600002944B463A464146304600F00DF8204673
:101E700000F046F8012004E0284600F00AFD4FF08B
:101E8000FF3005B0BDE8F0832DE9F0470A9C81469C
:101E9000206B00EB8202101FC0084FEAC00A00222C
:101EA000885CA51885F83400885C10B1521C102A93
:101EB000F6D3089E002084F84300062E099D88BFB3
:101EC000062604F14407E6623E6078609846201DCD
:101ED00000F03DFD04F1180000F039FD2461C6F169
:101EE0000706A66164620020B8603873424649461E
:101EF000504600F073FB206005B12C60BDE8F08710
:101F00002DE9F04100F064F8DFF84C56DFF84C861C
:101F1000E86C401CE8641426A86A28BBAC62E86C34
:101F2000012829D1002706FB07F0404400F002FDFC
:101F30007F1C072FF7D305F1740000F0FBFC05F1BF
:101F40008807384600F0F6FC284600F0F3FC05F15F
:101F5000140000F0EFFC05F1380000F0EBFC05F197
:101F60007400E8622F6307E0A86D28B9E16AA86AE7
:101F7000C26A914228BFAC62A86E401CA8660122CA
:101F8000E06A696D8240114369654643211D08EB93
:101F9000060000F0DFFC00F090FBA86D08B100F037
:101FA000CDFABDE8F08180B578B1DFF8AC25116FCE
:101FB00011B100F0BBFAFEE7116F491C1167002157
:101FC00000F0CEFA00F041F808B900F0A6FA01BD21
:101FD000044600F059BB211D142042439818704755
:101FE00030B583B0DFF8E0450FF2E85104F19C0012
:101FF000019000250095002380220FF25130FFF759
:1020000017FF012808BF00F0DDFC502101280ED188
:1020100081F3118800F08DFA4FF0FF30E066012067
:10202000A0652565BDE8374000F0FCBA37BD10F16A
:10203000010FFBD181F3118800F07BFAFEE7DFF896
:102040008805016F491C0167704770B5DFF80865A6
:10205000306F0024002528B9502181F3118800F049
:1020600068FAFEE700F010FB306F401E3067316FFA
:10207000002937D1F06CD8B934E0F168CC6800F0B1
:1020800032F800F01AF9E06A716D012282401143C2
:1020900071651423DFF834255843211D104400F0E6
:1020A00059FCE06AB16ACA6A904224BF01203066D6
:1020B00030680028E1D10CB100F083F9F46D3CB137
:1020C00000F019F808B101203066641EF8D1F565FA
:1020D000306E38B1DFF8F8044FF08051012501600F
:1020E00000F027FA15E204F1180000F058BCDFF800
:1020F000D804006D70472DE9F843DFF85C74386F41
:102100000025002852D13C6D641C3C6511D1F96A50
:10211000086828B1502282F3118800F00AFAFEE71D
:10212000F86A396BF9623863786E401C786600F0A3
:1021300048F9F86EDFF8949484424FF0140825D3E0
:102140001AE0301D00F02BFCB06A18B106F118003F
:1021500000F025FCF06A796D012282401143796517
:1021600008FB00F0311D484400F0F4FBF06AB96A46
:10217000CA6A904228BF0125F96A086890B1F96AD5
:10218000C868C66870688442DBD2F866B86AC16AFB
:1021900008FB01F059F80010F86D022928BF01254D
:1021A00048B906E04FF0FF31F966EFE7F86D401CE3
:1021B000F86500F083FD386E00B101252846BDE8C2
:1021C000F283DFF8941381B0086F10B101220A6620
:1021D00020E00866DFF8F433486DB0FA80F2C2F10F
:1021E0001F0214204243985838B9502181F31188B6
:1021F000BFF34F8FBFF36F8FFEE7981800F108030E
:102200004268526842609A4204BF52684260406825
:10221000C2688A6201B0704710B50C4600F017F82A
:1022200000F0A4FB2046BDE81040FFE7012197E144
:1022300038B50D46144600F00AF800F08BFB0CB1DF
:102240004FF0FF3521462846BDE8344088E138B9D3
:10225000502080F31188BFF34F8FBFF36F8FFEE7DD
:10226000DFF86423936A03F11801704738B5C0683A
:10227000C46814B900F05AF9FEE7FFF734FFDFF83D
:10228000D852286F60B900F018F8E26A686DDFF87C
:102290003C330121914008436865FFF79CFE02E052
:1022A00004F11801284600F055FBA86AC16AE06AEB
:1022B000814200D204E0002032BD201D00F06FBB3F
:1022C0000120286632BD38B9502080F31188BFF351
:1022D0004F8FBFF36F8FFEE7DFF8EC124A6E02609C
:1022E000096D4160704770B504460D46502014B921
:1022F00000F01DF9FEE715B900F019F9FEE700F04E
:10230000C3F9DFF8C402016D2A6812F1010F0FD082
:102310006368406E2668B04201D099420AD2C81A5A
:10232000904207D2511A591829602046FFF7CBFF77
:10233000002400E0012400F0C0F9204670BDDFF861
:1023400088120120086670470000000070B5DFF8B1
:102350000C52DFF804621AE0306F401C306770697D
:10236000441EA441FFF771FEE40F84B900F08CF91C
:10237000306AC468FFF7A1FFF06C401EF064706B18
:10238000401E706300F099F9204600F010F8706B61
:102390000028E1D12968012906D9DFF834224FF05D
:1023A0008050106000F0C5F800F089FCEFE710B530
:1023B0000446206B00F06DFA2046BDE8104000F0A6
:1023C00068BA6549CA6A106818B94FF0FF33CB661E
:1023D0007047C86AC268D0684268CA667047DFF84A
:1023E000E811886D08B901207047086F08B902200C
:1023F0007047002070472DE9F041040034D0564D5D
:10240000E06AA96ACA6A90422ED2A069002804D460
:10241000A86AC16AC1F10701A1611427E16ADFF866
:10242000AC8160697943414488421AD1FFF745FF86
:102430000126002801BFE06A784358F80000002810
:1024400000F055F8A86AC06AE0628640696D0E43E4
:102450006E654743211D08EB0700BDE8F04100F021
:1024600079BAA86AC16AE162BDE8F0812DE9F0415C
:1024700004460021002C37D0374DA86A50228442F0
:1024800004D082F3118800F054F8FEE7A06C20B964
:1024900082F3118800F04DF8FEE7E26A636C401E9B
:1024A0009A42A06420D0F8B9FFF707FF012614274D
:1024B000DFF81881002801BFE06A784358F800006F
:1024C000002800F014F8606CE062C0F10700A06121
:1024D000E06A696D86400E4347436E65211D08EB37
:1024E000070000F037FA01210846BDE8F08105D168
:1024F000696DE06A06FA00F0814369657047DFF8AC
:10250000C810886A18B1886A826C521C8264886A12
:10251000704700F0D2F8284670BD2D494FF080502A
:102520000860BFF34F8FBFF36F8F7047502080F369
:102530001188BFF34F8FBFF36F8F7047A96AC86AC6
:10254000E16A884207D222494FF080500860BFF309
:102550004F8FBFF36F8F704734280020D42800209E
:10256000F8B5194D2F6D0C46A96A0646081D00F0F6
:1025700016FA30B9A86A696DC06A01228240914397
:10258000696516F1010F08D13CB1A86A011D05F17A
:102590003800BDE8F44000F0DDB9A86AF6194660DD
:1025A000BE42A86A05D2011D286BBDE8F44000F0C8
:1025B000DDB9011DE86A00F0D9F9E86E864238BF3E
:1025C000EE66F1BD0000000034280020D428002071
:1025D00004ED00E049444C4500000000490810B5F6
:1025E0004900A0F10C034FF0807459609C600FF219
:1025F0000D01196040F8202D203810BD52494A685D
:10260000502012F1010F06D080F31188BFF34F8FD5
:10261000BFF36F8FFEE780F31188BFF34F8FBFF3D7
:102620006F8FFEE71CB54948474C01780191FF22A6
:10263000027002788DF800209DF8001001F0500122
:102640002170072105E09DF800205200491E8DF8F9
:1026500000209DF800201306F5D4090201F4E06182
:10266000A160019901703A48016841F4700101606C
:10267000026842F07042026000F072F80020606070
:1026800000F051FB002016BD502080F31188BFF3ED
:102690004F8FBFF36F8F2C494A68521C012A4A6042
:1026A0000AD12C490A68130606D080F31188BFF3BB
:1026B0004F8FBFF36F8FFEE770472349486838B9E3
:1026C000502080F31188BFF34F8FBFF36F8FFEE769
:1026D000401E486008BF80F31188704780B55020C5
:1026E00080F31188BFF34F8FBFF36F8FFFF703FDA8
:1026F00018B118494FF080500860002181F311880B
:1027000001BD0000EFF30580502110280E4A0BD3C5
:10271000114B185C1378984206D281F31188BFF3ED
:102720004F8FBFF36F8FFEE790680C4A136803F476
:10273000E063984206D281F31188BFF34F8FBFF355
:102740006F8FFEE7704700000000002000E400E00B
:1027500020ED00E004ED00E0F0E300E00CED00E02F
:10276000054906480A684FF47A73B2FBF3F35B1E1F
:1027700043600721016070471800002010E000E06E
:102780002DE9F8430446FFF75AFC694FB8684FF04B
:102790000008002508BB07F1180307F1180113F022
:1027A000070F4FF420500A4605D0CA1DD208D200A8
:1027B000C2F520500818801808383A60C0087D60BB
:1027C000C000B86045600560811A516010605068B3
:1027D0003861F8604FF0004078614FF05009786937
:1027E000044233D194B3083414F0070F1FBF04F12F
:1027F000080004F00704041B14F0070F02D000F0D7
:1028000041F8FEE714B3F868A0421FD33E6839468A
:102810007068A04223D2306800281CBF31460646AB
:10282000F6D11CE0301D02517460084600F05BF8E0
:102830007168F868401AF8603A69904238BF3861A8
:10284000786901437160356008F00705FFF7FDFB0B
:1028500015B100F017F8FEE74046BDE8F283B8680E
:102860008642F3D0326808680A6000F1080872688E
:10287000121B112ADCD3311911F00700D2D000F05D
:1028800001F8FEE789F31188BFF34F8FBFF36F8F15
:102890007047002800D1704738B5A0F10804244DD6
:1028A00061686A695023114202D100F015F8FEE711
:1028B000206810B100F010F8FEE791436160FFF767
:1028C000BEFBE96860684118E960204600F00BF83B
:1028D000BDE83140FFF7B9BB83F31188BFF34F8FD9
:1028E000BFF36F8F704730B511490A4600E01A46B2
:1028F00013688342FBD35368D418844203D14068E1
:10290000C3185360104643681468C518A54208D11F
:1029100089688C4204D06168CB184360246800E069
:102920000C460460824218BF106030BD00000000F9
:102930001C00002000F1080141604FF0FF31816070
:1029400000F10801C16001610021016070470021B0
:102950000161704742684A6093688B609368596070
:10296000916008610168491C0160704730B50A68D0
:1029700012F1010F08BF036907D000F1080300E05E
:1029800023465C682568AA42FAD25A684A60916078
:102990008B60596008610168491C016030BD436863
:1029A000016982689A60836842685A604A68824214
:1029B00004BF82684A60002202610868401E086005
:1029C0007047000000B583B000F049F9DFF8D41279
:1029D000886868B10C3103220191009200234FF402
:1029E00080720FF2C8210FF25900FFF721FA10B9D7
:1029F00000F0BFF8FEE70EBDFEB504461E460020FF
:102A000014B900F0B6F8FEE7A64FBD68BDB10629BF
:102A10000091019202940CDAFFF7E1FC0228B868F9
:102A200007BF089A002300230022694600F0EDF951
:102A3000FEBD002332466946284600F077FAFEBD07
:102A400080B598490A68106800281DBF0021D06829
:102A50000068012100F003F800F0AEF8F1E7F0B5EE
:102A600083B006460C46FFF7EAFA01A800F044F8E6
:102A70000546019800283CD18A4F24BBB54227D394
:102A8000FFF7E3FA3868C168CC68201DFFF787FFBD
:102A9000E069012813D1A16933462A4689192046E5
:102AA00000F06FF858B1002000900023324600215A
:102AB0002046FFF7A1FF10B900F05BF8FEE7616A5E
:102AC00020468847F7BD786801684C1EA441E40F92
:102AD000B8682246711B00F0D3FBFFF7B6FA50B975
:102AE00071494FF080500860BFF34F8FBFF36F8F75
:102AF000F7BDFFF7AAFAF7BD2DE9F04182B0044611
:102B0000FFF7F5FA674E0546306985420BD3002082
:102B1000206035612846BDE8F68178603F61391D47
:102B20003068FFF723FF31680868E8B1C868D0F85B
:102B30000080C768381DFFF732FF796A384688473A
:102B4000F8690128EFD1B86940448045E5D30020F9
:102B500000900023424600213846FFF74DFF002831
:102B6000E1D100F006F8FEE7706830607160012086
:102B7000CEE7502080F31188BFF34F8FBFF36F8FE4
:102B8000704738B500248A4241600061454D06D344
:102B90008169D21A8A4206D2011D686807E09A420A
:102BA00003D2994201D3012403E0011D2868FFF7F5
:102BB000DDFE204632BD000010B586B004E01346AD
:102BC00089182046FFF7DDFF364880680023002281
:102BD00002A900F009FA00283FD002980028F3D497
:102BE000049C606910B1201DFFF7D9FE01A8FFF712
:102BF00083FF024602980928E6D8DFE800F00606BF
:102C00000605232A06060523DEE70399A0690B467D
:102C100041182046FFF7B5FF0028D5D0616A20464D
:102C20008847E0690128CFD100210091039AA0696B
:102C3000821800232046FFF7DFFE0028C4D1FFF7EB
:102C400098FFFEE70399A1610029B8D1FFF791FF32
:102C5000FEE72046FFF71DFEB6E706B010BD10B533
:102C6000FFF712FD0F4CA068C0B904F11400FFF784
:102C700061FE04F12800FFF75DFE04F114002060FE
:102C8000002204F1280060600C210A2000F096F870
:102C9000A06018B10FF21C0100F0DDFABDE8104091
:102CA000FFF70BBDF429002004ED00E0546D722005
:102CB00053766300546D72510000000070477047F6
:102CC000EFF30980BFF36F8F1D4B1A6820E9F00FF7
:102CD000106008B54FF0500080F31188BFF34F8F9C
:102CE000BFF36F8FFFF76DFA4FF0000080F311888C
:102CF000BDE8084019680868B0E8F00F80F309885B
:102D0000BFF36F8F70470E4B19680868B0E8F00F7B
:102D100080F30988BFF36F8F4FF0000080F31188B4
:102D20004EF00D0E704707480068006880F3088871
:102D300062B661B6BFF34F8FBFF36F8F00DF000045
:102D40005C28002008ED00E038B504000D4602D1F3
:102D500000F0F5F9FEE7FFF797FCE26B206C2168C5
:102D60004243881860600020A0632068E26BA06086
:102D7000521E206C216842438818E0604FF0FF31FA
:102D800004F144000170417065B9206990B100F010
:102D9000D2F978B1DFF8E0144FF08050086000F00D
:102DA00014F907E004F11000FFF7C4FD04F124005A
:102DB000FFF7C0FDFFF781FC012032BDF8B506002A
:102DC0000D46174602D100F0BAF9FEE7002D0EBFFE
:102DD000482005FB06F04830FFF7D2FC040007D07E
:102DE00000943B4604F148022946304600F002F8C0
:102DF0002046F2BD82B0029B01B91A461A60D86320
:102E000019641846012102B09EE72DE9F44783B00A
:102E100006468A461F460024502516B900F0D3F80E
:102E2000FEE7BAF1000F01D1306C60B9022F02D178
:102E3000F06B01280AD1FFF7D2FAC0B90398B0B1FC
:102E400000F0C1F8FEE700F0BEF8FEE700F0BBF8C6
:102E5000FEE7039906F11000FFF7DEF900F069F9CB
:102E6000FFF7F3F818B9C8F8009000F0AEF8FFF7D4
:102E70000BFCB06BF16BDFF8008488424FF0805997
:102E80003FD3022F3DD00398002837D01CB96846A5
:102E9000FFF719FA0124FFF710FCFFF7D0F8FFF74E
:102EA000F3FB00F03FF904BF0022027090F901101B
:102EB00011F1010F04BF00224270FFF7FEFB03A9CE
:102EC0006846FFF710FA58BBFFF7DEFBB06BF16BFB
:102ED000884214BF00250125FFF7EFFB002DB8D174
:102EE00000F027F9FFF7B1F8C1E718B1C8F8009072
:102EF00000F06BF8FFF7E1FB012016E0FFF7DDFBC8
:102F000012E03A465146304600F021F9716A002934
:102F1000EBD006F12400FFF7A9F90028E6D1E9E794
:102F200000F007F9FFF791F80020F8E02DE9F843E9
:102F30000446884615461E46502724B987F3118853
:102F400000F043F8FEE7B8F1000F01D1206C10BB90
:102F5000022E02D1E06B012822D1FFF7D3FBEFF361
:102F6000118900F037F801D3022E23D194F945706E
:102F700032464146204600F0EAF817F1010F14D11D
:102F8000606AA8B100F01BF8002818BF002D0FD010
:102F9000012028600CE087F3118800F016F8FEE7A6
:102FA00087F3118800F011F8FEE77F1C84F8457064
:102FB000012000E0002089F31188BDE8F28304F1CC
:102FC0002400FFF753B985F31188BFF34F8FBFF388
:102FD0006F8F704787F31188BFF34F8FBFF36F8FE9
:102FE000A06BE16B884270472DE9F44783B0064639
:102FF00099460024502516B9FFF7E5FFFEE75FEA82
:10300000010801D1306C38B9FFF7E9F958B90398D4
:1030100048B1FFF7D8FFFEE7FFF7D5FFFEE700F066
:1030200088F8FFF712F8FFF72FFBB06BDFF8485274
:103030004FF0805720B9039858BBFFF73EFB6DE077
:103040000446D6F80CA04146304600F0B4F8B9F179
:10305000000F0ED1641EB463306810B9FFF74FFA49
:103060007060306988B106F11000FFF7FFF848B9C9
:103070000BE0706AC6F80CA038B106F12400FFF727
:10308000F5F810B12F60FFF7A0FFFFF716FB012046
:1030900045E01CB96846FFF716F90124FFF70DFB60
:1030A000FEF7CDFFFFF7F0FA00F03CF804BF002276
:1030B000027090F9011011F1010F04BF002242705B
:1030C000FFF7FBFA03A96846FFF70DF90028304621
:1030D0001BD100F0B5F80028A1D0306830B9FFF757
:1030E000D3FA7068FFF787F9FFF7E7FA039906F15B
:1030F0002400FFF791F800F01CF8FEF7A6FF002867
:1031000091D12F60FFF761FF8DE700F068F8FEF7BF
:103110009CFF304600F094F8002884D0002004B0D2
:10312000BDE8F08706F1440090F9001011F1010F9D
:103130007047304653E004F11000FFF797B8502075
:1031400080F31188BFF34F8FBFF36F8F7047F8B5CF
:1031500006461546B46B326C002742B9316831BB64
:103160007068FFF783F90021074671601FE065B9B9
:10317000B068FEF709FEB068316C08447168B06051
:10318000884214D33068B06011E0F068FEF7FCFDAF
:10319000306CF16840420144F1603268914202D2E1
:1031A00071680844F060022D01D104B1641E641CF2
:1031B000B4633846F2BD026C002A0B4600D170475A
:1031C00010B5C16844681144C160A14224BF0168C0
:1031D000C160C168BDE810401846FEF7D5BD70B5A6
:1031E00082B00446FFF750FA04F1440595F90160F6
:1031F00076B2012E11DB606A78B1FFF7E0FE08B10C
:10320000FFF79DF8761EF3E7206990B1FFF793FF73
:1032100008B1FFF794F8761E08E04FF0FF306870B1
:10322000FFF74BFAFFF730FA95F9006076B2012EFE
:10323000EADA4FF0FF302870BDE87340FFF73DBA7F
:1032400010B50446FFF720FAA06B441EA441FFF717
:1032500034FAE00F10BD10B50023084C54F83320A9
:103260001AB15B1C082BF9D310BD44F8331004EBE2
:10327000C301486010BD000004ED00E0B429002047
:10328000F8B504460D461646FFF7FEF904F1380777
:1032900097F90C0010F1010F04BF0021397397F961
:1032A0000D0010F1010F04BF00217973FFF705FA3B
:1032B000386828B93246294604F12400FEF7B8FFE1
:1032C0002046BDE8F2408AE70E49086840F0010058
:1032D00008604A680C4802404A600B680B4803408B
:1032E0000B60086820F4802008604FF41F004A68D3
:1032F00022F4FE024A6088604FF0006004490860D2
:1033000070470000001002400000FFF8FFFFF6FECB
:1033100008ED00E0000000000000000001020304CE
:103320000607080919E050F8042BD30744BFA9F198
:1033300001039A18091F0023042942F8043BF9D21B
:103340005FEA817C134604D54FF0000CA2F800C060
:103350009B1CC90744BF0021197050F8041B0029A9
:10336000E1D170477047FEE7FEE7FEE7FEE77047F2
:1033700080B500F00DF8BDE80140FEF7AEBC034893
:10338000FCF7CCBF0148FDF7E2B80000602900203F
:1033900002494A68087882184A6070470C00002089
:1033A00010B450F8041B79B1026843680244083035
:1033B000DC0744BFA9F10104E31852F8044B43F8B9
:1033C000044B091FF9D1ECE710BC704710B5074951
:1033D00079441831064C7C44163404E00A68081D10
:1033E000114488470146A142F8D110BD08000000F1
:1033F0002800000031FFFFFF182A00001C000020F9
:10340000000000009DFFFFFF1C0000000C000000FA
:10341000000000200000000000000000AAAAAAAAE4
:10342000000000000100000000000000100000008B
:1034300000A24A0400F00BF8002801D0FFF7C6FFF5
:103440000020AFF30080FEF75AF800F002F80120E8
:10345000704700F001B800000746384600F002F857
:10346000FBE7000080B5AFF30080024A110018208E
:10347000ABBEFBE726000200014880470148004739
:10348000C93200089534000864656661756C74542F
:1034900061736B00AFF30080AFF30080FFF7CAFFEA
:1034A0000000000001020304FFF7FEBFFFF7FEBFAC
:1034B000FFF7FEBFFFF7FEBFFFF7FEBFFFF7FEBF40
:1034C000FFF7FEBFFFF7FEBFFFF7FEBFFFF7FEBF30
:1034D000FFF7FEBFFFF7FEBFFFF7FEBFFFF7FEBF20
:1034E000FFF7FEBFFFF7FEBFFFF7FEBFFFF7FEBF10
:1034F000FFF7FEBFFFF7FEBFFFF7FEBFFFF7FEBF00
:10350000FFF7FEBFFFF7FEBFFFF7FEBFFFF7FEBFEF
:10351000FFF7FEBFFFF7FEBFFFF7FEBFFFF7FEBFDF
:10352000FFF7FEBFFFF7FEBFFFF7FEBFFFF7FEBFCF
:10353000FFF7FEBFFFF7FEBFFFF7FEBFFFF7FEBFBF
:0C354000FFF7FEBFFFF7FEBFFFF7FEBF66
:040000050800349526
:00000001FF
